:020000040800F2
:1000000000000120D9710008417000084770000805
:100010004D7000085370000859700008000000007F
:1000200000000000000000005F700008657000081C
:100030006B7000087170000877700008416B000851
:100040007D70000883700008897000088F700008B8
:10005000F142000805430008957000089B700008F5
:10006000A1700008A7700008AD700008B370000808
:10007000B9700008BF700008C5700008CB70000898
:10008000D1700008D7700008DD700008E370000828
:10009000E9700008EF700008DD240008F570000822
:1000A000FB700008017100082D1A0008211A0008D1
:1000B000077100080D7100081371000800000000AE
:1000C0000000000000000000000000000000000030
:1000D000000000000000000000000000197100088E
:1000E000000000001F710008257100082B71000836
:1000F00031710008377100083D7100084371000834
:100100004971000800000000196600084F710008DE
:10011000557100085B710008617100086771000883
:100120006D71000873710008797100087F71000813
:10013000857100088B7100089171000897710008A3
:100140009D710008A3710008A9710008AF71000833
:10015000B5710008BB710008C1710008C7710008C3
:10016000CD710008D37100080000000000000000FD
:1001700081F0004102E000BF83F0004330B54FEA58
:1001800041044FEA430594EA050F08BF90EA020FC5
:100190001FBF54EA000C55EA020C7FEA645C7FEA58
:1001A000655C00F0E2804FEA5454D4EB5555B8BF7B
:1001B0006D420CDD2C4480EA020281EA030382EAEC
:1001C000000083EA010180EA020281EA0303362D7E
:1001D00088BF30BD11F0004F4FEA01314FF4801C51
:1001E0004CEA113102D0404261EB410113F0004F63
:1001F0004FEA03334CEA133302D0524263EB43031A
:1002000094EA050F00F0A780A4F10104D5F1200EB7
:100210000DDB02FA0EFC22FA05F2801841F1000112
:1002200003FA0EF2801843FA05F359410EE0A5F1E6
:1002300020050EF1200E012A03FA0EFC28BF4CF017
:10024000020C43FA05F3C01851EBE37101F00045CD
:1002500007D54FF0000EDCF1000C7EEB00006EEBDA
:100260000101B1F5801F1BD3B1F5001F0CD3490864
:100270005FEA30004FEA3C0C04F101044FEA4452BB
:1002800012F5800F80F09A80BCF1004F08BF5FEA42
:10029000500C50F1000041EB045141EA050130BD22
:1002A0005FEA4C0C404141EB0101013C28BFB1F534
:1002B000801FE9D291F0000F04BF01460020B1FA7F
:1002C00081F308BF2033A3F10B03B3F120020CDA52
:1002D0000C3208DD02F1140CC2F10C0201FA0CF030
:1002E00021FA02F10CE002F11402D8BFC2F1200C95
:1002F00001FA02F120FA0CFCDCBF41EA0C0190404B
:10030000E41AA2BF01EB0451294330BD6FEA040493
:100310001F3C1CDA0C340EDC04F11404C4F120027E
:1003200020FA04F001FA02F340EA030021FA04F390
:1003300045EA030130BDC4F10C04C4F1200220FAE7
:1003400002F001FA04F340EA0300294630BD21FA25
:1003500004F0294630BD94F0000F83F4801306BFEB
:1003600081F480110134013D4EE77FEA645C18BFDF
:100370007FEA655C29D094EA050F08BF90EA020F76
:1003800005D054EA000C04BF1946104630BD91EA6E
:10039000030F1EBF0021002030BD5FEA545C05D171
:1003A0004000494128BF41F0004130BD14F58004B0
:1003B0003CBF01F5801130BD01F0004545F0FE4124
:1003C00041F470014FF0000030BD7FEA645C1ABF59
:1003D000194610467FEA655C1CBF0B46024650EA90
:1003E000013406BF52EA033591EA030F41F40021BC
:1003F00030BD00BF90F0000F04BF0021704730B542
:100400004FF4806404F132044FF000054FF0000116
:1004100050E700BF90F0000F04BF0021704730B5D7
:100420004FF4806404F1320410F0004548BF4042AC
:100430004FF000013EE700BF42004FEAE2014FEA01
:1004400031014FEA02701FBF12F07F4393F07F4FDC
:1004500081F06051704732F07F4208BF704793F0DF
:100460007F4F04BF41F40021704730B54FF46074F2
:1004700001F0004521F000411CE700BF50EA0102F5
:1004800008BF704730B54FF000050AE050EA01029E
:1004900008BF704730B511F0004502D5404261EB0E
:1004A00041014FF4806404F132045FEA915C3FF44F
:1004B000D8AE4FF003025FEADC0C18BF03325FEAEC
:1004C000DC0C18BF033202EBDC02C2F1200300FA9D
:1004D00003FC20FA02F001FA03FE40EA0E0021FAC2
:1004E00002F11444BDE600BF4A0011D212F5001219
:1004F00011D20DD56FF47873B3EB62520ED44FEA7C
:10050000C12343F0004343EA505323FA02F07047FB
:100510004FF00000704750EA013002D14FF0FF3039
:1005200070474FF0000070474FEA4102B2F1E043DC
:1005300024BFB3F5001CDCF1FE5C0DD901F0004CCA
:100540004FEAC0024CEA5070B2F1004F40EB83001A
:1005500008BF20F00100704711F0804F21D113F146
:100560003872BCBF01F00040704741F480114FEA7F
:100570005252C2F11802C2F1200C10FA0CF320FA08
:1005800002F018BF40F001004FEAC1234FEAD32325
:1005900003FA0CFC40EA0C0023FA02F34FEA43038F
:1005A000CCE77FEA625307D150EA01331EBF4FF018
:1005B000FE4040F44000704701F0004040F0FE4033
:1005C00040F40000704700BF000000000000000081
:1005D00001F0FF01102A2BDB10F0070F08D010F8F4
:1005E000013B013A8B422DD010F0070F42B3F6D1F8
:1005F000F0B441EA012141EA014122F007047FF011
:1006000000070023F0E80256083C85EA010586EA67
:10061000010685FA47F5A3FA87F586FA47F6A5FAA3
:1006200087F68EB9EED1F0BC01F0FF0102F00702AF
:1006300032B110F8013B013A83EA010313B1F8D15A
:100640000020704701387047002D06BF354603383B
:10065000073815F0010F07D1013015F4807F02BF74
:10066000013015F4C03F0130F0BC0138704700BFC5
:10067000034613F8012B002AFBD1181A01387047E2
:1006800070B54FF0FF0C4CF4E06C1CEA11541DBF28
:100690001CEA135594EA0C0F95EA0C0F00F0DEF8F3
:1006A0002C4481EA030621EA4C5123EA4C5350EAD8
:1006B000013518BF52EA033541F4801143F4801329
:1006C00038D0A0FB02CE4FF00005E1FB02E506F0BA
:1006D0000042E0FB03E54FF00006E1FB03569CF00F
:1006E000000F18BF4EF0010EA4F1FF04B6F5007F15
:1006F00064F5407404D25FEA4E0E6D4146EB060687
:1007000042EAC62141EA55514FEAC52040EA5E500F
:100710004FEACE2EB4F1FD0C88BFBCF5E06F1ED8B9
:10072000BEF1004F08BF5FEA500E50F1000041EBF0
:10073000045170BD06F0004646EA010140EA02009D
:1007400081EA0301B4EB5C04C2BFD4EB0C0541EABF
:10075000045170BD41F480114FF0000E013C00F3D4
:10076000AB8014F1360FDEBF002001F0004170BDF8
:10077000C4F10004203C35DA0C341BDC04F1140411
:10078000C4F1200500FA05F320FA04F001FA05F29D
:1007900040EA020001F0004221F0004110EBD3706A
:1007A00021FA04F642EB06015EEA430E08BF20EA96
:1007B000D37070BDC4F10C04C4F1200500FA04F339
:1007C00020FA05F001FA04F240EA020001F00041CB
:1007D00010EBD37041F100015EEA430E08BF20EA3E
:1007E000D37070BDC4F1200500FA05F24EEA020E86
:1007F00020FA04F301FA05F243EA020321FA04F0B5
:1008000001F0004121FA04F220EA020000EBD3706B
:100810005EEA430E08BF20EAD37070BD94F0000F6B
:100820000FD101F00046400041EB010111F4801F9F
:1008300008BF013CF7D041EA060195F0000F18BF50
:10084000704703F00046520043EB030313F4801F8C
:1008500008BF013DF7D043EA0603704794EA0C0F46
:100860000CEA135518BF95EA0C0F0CD050EA41065C
:1008700018BF52EA4306D1D181EA030101F00041D9
:100880004FF0000070BD50EA410606BF1046194601
:1008900052EA430619D094EA0C0F02D150EA01360D
:1008A00013D195EA0C0F05D152EA03361CBF10464E
:1008B00019460AD181EA030101F0004141F0FE41ED
:1008C00041F470014FF0000070BD41F0FE4141F471
:1008D000780170BD70B54FF0FF0C4CF4E06C1CEA71
:1008E00011541DBF1CEA135594EA0C0F95EA0C0F26
:1008F00000F0A7F8A4EB050481EA030E52EA0335E1
:100900004FEA013100F088804FEA03334FF0805501
:1009100045EA131343EA12634FEA022245EA11152E
:1009200045EA10654FEA00260EF000419D4208BFDF
:10093000964244F1FD0404F5407402D25B084FEA8C
:100940003202B61A65EB03055B084FEA32024FF438
:1009500080104FF4002CB6EB020E75EB030E22BF95
:10096000B61A754640EA0C005B084FEA3202B6EB55
:10097000020E75EB030E22BFB61A754640EA5C0004
:100980005B084FEA3202B6EB020E75EB030E22BF94
:10099000B61A754640EA9C005B084FEA3202B6EB95
:1009A000020E75EB030E22BFB61A754640EADC0054
:1009B00055EA060E18D04FEA051545EA16754FEAB6
:1009C00006164FEAC30343EA52734FEAC2025FEAD4
:1009D0001C1CC0D111F4801F0BD141EA00014FF063
:1009E00000004FF0004CB6E711F4801F04BF014334
:1009F0000020B4F1FD0C88BFBCF5E06F3FF6AFAE50
:100A0000B5EB030C04BFB6EB020C5FEA500C50F1DF
:100A1000000041EB045170BD0EF0004E4EEA113162
:100A200014EB5C04C2BFD4EB0C0541EA045170BD69
:100A300041F480114FF0000E013C90E645EA060EAD
:100A40008DE60CEA135594EA0C0F08BF95EA0C0FDB
:100A50003FF43BAF94EA0C0F0AD150EA01347FF423
:100A600034AF95EA0C0F7FF425AF104619462CE7FA
:100A700095EA0C0F06D152EA03353FF4FDAE10465D
:100A8000194622E750EA410618BF52EA43067FF4AE
:100A9000C5AE50EA41047FF40DAF52EA43057FF43E
:100AA000EBAE12E74FF0FF3C06E000BF4FF0010C49
:100AB00002E000BF4FF0010C4DF804CD4FEA410CAD
:100AC0007FEA6C5C4FEA430C18BF7FEA6C5C1BD07A
:100AD00001B050EA410C0CBF52EA430C91EA030FFB
:100AE00002BF90EA020F0020704710F1000F91EA58
:100AF000030F58BF994208BF90422CBFD8176FEA26
:100B0000E37040F0010070474FEA410C7FEA6C5CF3
:100B100002D150EA013C07D14FEA430C7FEA6C5CFA
:100B2000D6D152EA033CD3D05DF8040B704700BF26
:100B30008446104662468C461946634600E000BF74
:100B400001B5FFF7B7FF002848BF10F1000F01BD46
:100B50004DF808EDFFF7F4FF0CBF012000205DF811
:100B600008FB00BF4DF808EDFFF7EAFF34BF012096
:100B700000205DF808FB00BF4DF808EDFFF7E0FF2F
:100B800094BF012000205DF808FB00BF4DF808ED80
:100B9000FFF7CEFF94BF012000205DF808FB00BFE7
:100BA0004DF808EDFFF7C4FF34BF012000205DF8C9
:100BB00008FB00BF4FEA410C7FEA6C5C02D150EAAF
:100BC000013C0AD14FEA430C7FEA6C5C02D152EA45
:100BD000033C02D14FF0000070474FF00100704716
:100BE0004FEA410212F5001215D211D56FF4787355
:100BF000B3EB625212D94FEAC12343F0004343EAF8
:100C0000505311F0004F23FA02F018BF40427047D2
:100C10004FF00000704750EA013005D111F000405C
:100C200008BF6FF0004070474FF00000704700BFF2
:100C30000348044B834202D0034B03B1184770476B
:100C40002803002028030020000000000548064B70
:100C50001B1AD90F01EBA301491002D0034B03B1BA
:100C600018477047280300202803002000000000D8
:100C700010B5064C237843B9FFF7DAFF044B13B1E4
:100C80000448AFF300800123237010BDC07300201F
:100C90000000000004BC010808B5054B1BB1054964
:100CA0000548AFF30080BDE80840FFF7CFBF00BFA5
:100CB00000000000C473002004BC010880B582B0AD
:100CC00000AF78607868FFF7D3FC024613469B00BC
:100CD00013445B001344074AA2FB0323DA081346BC
:100CE0009B0013445B001344373318460837BD4656
:100CF00080BD00BFCDCCCCCC80B586B000AFF86055
:100D0000B9607A60BB68013BFA6842FA03F303F00A
:100D10000103002B05D1124B124ABA2112480BF0E5
:100D20003FFEBB68013B7B6112E0FA687B6942FAD7
:100D300003F303F00103002B01D0FF2100E00021A9
:100D40007B685A1C7A600A461A707B69013B7B619A
:100D50007B69002BE9DA00BF00BF1837BD4680BDB4
:100D600004FB0008A4FB00082CFB000880B582B03F
:100D700000AF786039607B68002B02DB7B68692BF1
:100D800005DD0A4B0A4AC5210A480BF009FE0A4A4A
:100D90007B6852F823303A680B211846FFF7ACFF06
:100DA0000B2318460837BD4680BD00BF44FB000832
:100DB000BCFB00082CFB000858F9000880B582B085
:100DC00000AF786041F6EB037A680D211846FFF713
:100DD00093FF0D2318460837BD4680BD80B582B00D
:100DE00000AF03460A46FB711346BB71FB79632BC8
:100DF0001AD0632B21DC612B02D0622B0AD01CE0BD
:100E0000BB79622B02D0632B02D003E064231AE08B
:100E1000632318E0BB79612B02D0632B02D003E07F
:100E2000652310E063230EE0BB79612B03D0622BB6
:100E300003D1642307E0652305E0054B054AEC2157
:100E400005480BF0ADFD18460837BD4680BD00BF14
:100E500098FB0008D0FB00082CFB000880B483B08E
:100E600000AF0346FB71FB791F2B07D9FB795F2B82
:100E700004D8FB79203BDBB25BB21DE0FB791F2B72
:100E800004D8FB794033DBB25BB215E0FB79F12B80
:100E900001D1662310E0FB79F22B01D161230BE035
:100EA000FB79F32B01D1602306E0FB79F42B01D110
:100EB000652301E04FF0FF3318460C37BD465DF85F
:100EC000047B704780B483B000AF0346FB71FB79AD
:100ED0001F2B04D9FB79203BDBB25BB215E0FB7919
:100EE000F12B01D1662310E0FB79F22B01D16123B4
:100EF0000BE0FB79F32B01D1602306E0FB79F42BA7
:100F000001D1642301E04FF0FF3318460C37BD4692
:100F10005DF8047B704780B485B000AF78607B6873
:100F20001B78F12B01D1662324E07B681B782F2BE3
:100F30001ED97B681B78392B1AD87B6801331B7844
:100F40002F2B15D97B6801331B78392B10D87B6880
:100F50001B781A46920013445B00DAB27B680133B7
:100F60001B781344DBB2103BFB7397F90F3001E0A1
:100F70004FF0FF3318461437BD465DF8047B7047C9
:100F800080B588B000AFF860B9607A60BA6813467F
:100F90005B0013449B001A46FB681344FB617A68AC
:100FA00013465B0013449B001A46FB681344BB6165
:100FB000FB695B681B78FB75FB7D002B01D100236F
:100FC0002CE0FB7D1846FFF749FF03461A46BB6934
:100FD000DA72BB6993F90B30002B01DA00231DE0B4
:100FE000BB69BA681A60FB695B685A1CBB695A60C6
:100FF000BB6961229A72FB691B890B339AB2BB6988
:101000001A81BB699A7AFB699B7A9A4205D0BB69BF
:101010001B890B339AB2BB691A810123184620370A
:10102000BD4680BD80B588B000AFF860B9607A6019
:10103000BA6813465B0013449B001A46FB681344CE
:10104000FB617A6813465B0013449B001A46FB68F9
:101050001344BB61FB695B681B78FB75FB7D002B50
:1010600001D100232CE0FB7D1846FFF72BFF034640
:101070001A46BB69DA72BB6993F90B30002B01DAAF
:1010800000231DE0BB69BA681A60FB695B685A1CE3
:10109000BB695A60BB6962229A72FB691B890B3378
:1010A0009AB2BB691A81BB699A7AFB699B7A9A42A8
:1010B00005D0BB691B890B339AB2BB691A81012326
:1010C00018462037BD4680BD80B588B000AFF860B7
:1010D000B9607A60BA6813465B0013449B001A46F5
:1010E000FB681344FB617A6813465B0013449B0062
:1010F0001A46FB681344BB61FB695B681B78FB7590
:10110000FB7D002B01D1002337E0FB695B681846AB
:10111000FFF701FF03461A46BB69DA72BB6993F910
:101120000B30002B01DA002327E0BB69BA681A6094
:10113000FB695B685A1CBB695A60BB6993F90B3049
:10114000632B04DCBB695B685A1CBB695A60BB69D2
:1011500063229A72FB691B890B339AB2BB691A81AD
:10116000BB699A7AFB699B7A9A4205D0BB691B8955
:101170000B339AB2BB691A81012318462037BD464A
:1011800080BD80B584B000AF78607B68DA687B682A
:101190005B689A4215DB7B685B6803F580627B685D
:1011A0005A607B681A687B685B6819460B465B006F
:1011B0000B449B00194610460BF03AFD02467B6833
:1011C0001A607B681A687B68DB6819460B465B000F
:1011D0000B449B001344FB600C220021F8680CF0C8
:1011E0003DFBFB6818461037BD4680BD80B586B014
:1011F00000AF78607B681A687B689B6819460B466D
:101200005B000B449B0013443B613B695B681B78AC
:10121000002B1DD13B691B891A467B685B699A428A
:101220000CD37B681B69002B80F2A3803B691B8970
:101230001A467B685B699A4240F09B807B689A689B
:101240007B681A613B691B891A467B685A6190E08A
:101250003B691B891A467B685B699A4280F08B80E8
:101260003B699B7AFB737868FFF78BFF00237B61F8
:101270007B6818687B6899687B68DB681A46FFF7AB
:1012800023FF0346002B09D07B68DB685A1C7B6870
:10129000DA607868FFF775FF01237B61FB7B612BC8
:1012A0001DD17B6818687B6899687B68DB681A4683
:1012B000FFF766FE0346002B0BD17B6818687B683E
:1012C00099687B68DB681A46FFF7ACFE0346002B83
:1012D00052D07B68DB685A1C7B68DA604CE0FB7B91
:1012E000622B1DD17B6818687B6899687B68DB6816
:1012F0001A46FFF797FE0346002B0BD17B68186850
:101300007B6899687B68DB681A46FFF739FE0346FD
:10131000002B31D07B68DB685A1C7B68DA602BE0DD
:101320007B69002B28D17B6818687B6899687B688B
:10133000DB681A46FFF724FE0346002B07D07B68C4
:10134000DB685A1C7B68DA607868FFF71AFF7B68F5
:1013500018687B6899687B68DB681A46FFF762FE4D
:101360000346002B08D07B68DB685A1C7B68DA6078
:1013700002E000BF00E000BF1837BD4680BD00009E
:101380002DE9F04395B000AFF860B9607A606B4624
:101390001E462C233B643B6C16337A689A4201D27A
:1013A00000233AE14FF48073BB61BB691A461346D0
:1013B0005B0013449B0018460BF010FB03467B6157
:1013C0000023FB6100233B627A683B6CD31ABB624B
:1013D0004FF0FF337B627B694FF0FF321A607B690D
:1013E000FA685A607B690B221A817B6963229A72C0
:1013F0007B696922DA727B690C334FF0FF321A6025
:101400007B690C33FA685A607B690C330B221A81B2
:101410007B690C3361229A727B690C336722DA7222
:101420007B6918334FF0FF321A607B691833FA6812
:101430005A607B6918330B221A817B691833622248
:101440009A727B6918336822DA7203233B6207F1D0
:1014500014031846FFF7CAFEFB690133FB61FA6902
:101460003B6A9A42F3D17B6A002B05DA7B69184606
:101470000BF0BCFA0023D0E0BB6A6B4AA2FB03234B
:10148000DB08FB63F96B0B46013BBB63002388461B
:1014900099464FF000024FF000034FEAC90343EAB8
:1014A00058734FEAC80200230C461D464FF0000255
:1014B0004FF00003EB0043EA5473E200CB1DDB085E
:1014C000DB00ADEB030D6B4600337B637A697B6A0F
:1014D00019460B465B000B449B001344FB64FB6BFB
:1014E000013BBB642FE07A69FB6C1B6819460B4615
:1014F0005B000B449B001344FB62FB6C93F90B30C5
:10150000D9B27A6BBB6C13440A461A70FB6C9A7A98
:10151000FB6A9B7A9A4211D0BB6C013BBB64FB6AAD
:101520009A7AFB6C9B7A19461046FFF757FC0346E4
:10153000D9B27A6BBB6C13440A461A70FB6AFB641F
:10154000BB6C013BBB64BB6C002BCCD1FB6C93F937
:101550000B30DAB27B6B1A70BB6A3A6C13443B6394
:101560000A220021B8680CF079F9BB680A33BB6025
:101570000023BB640FE07A6BBB6C13441B78B96823
:101580001846FFF7F3FB03461A46BB681344BB60DB
:10159000BB6C0133BB64BA6CFB6B9A42EBD37B6BC5
:1015A0001B787B640123BB640DE07A6BBB6C134436
:1015B0001B781A46BB6C03FB02F27B6C13447B6402
:1015C000BB6C0133BB64BA6CFB6B9A42EDD37B6C92
:1015D000164A82FB0312D110DA178A1A672101FB1F
:1015E00002F29A1AB9681046FFF7C0FB03461A4682
:1015F000BB681344BB60B868FFF7E0FB03461A46BC
:10160000BB681344BB600A220021B8680CF026F9BD
:101610007B6918460BF0EAF93B6BB5461846543720
:10162000BD46BDE8F08300BFA38B2EBABD2CE213EC
:101630002DE9F04389B000AFF860B9607A606B467D
:101640001E46F868FFF714F80346591C0B46013B89
:10165000BB610023884699464FF000024FF000031B
:101660004FEAC90343EA58734FEAC80200230C4605
:101670001D464FF000024FF00003EB0043EA5473A5
:10168000E200CB1DDB08DB00ADEB030D6B46003346
:101690007B617B69FB611DE006221849F8680CF04C
:1016A000E5F80346002B08D1FB695A1CFA61F122C8
:1016B0001A70FB680533FB6009E0FB681B78202B80
:1016C00005D0FB695A1CFA61FA6812781A70FB6837
:1016D0000133FB60FB681B78002BDDD1FB69002226
:1016E0001A707A68B9687869FFF74AFE0346B5460A
:1016F00018462437BD46BDE8F08300BF9CFB0008B8
:1017000080B400AF044B1B681B0EDBB21846BD460D
:101710005DF8047B704700BF0080E00F80B400AF2D
:10172000034BDB689BB21846BD465DF8047B7047EF
:101730000080E00F80B400AF034B5B689BB218469B
:10174000BD465DF8047B70470080E00F80B483B035
:1017500000AF786039607B681A683B6822FA03F34F
:1017600003F0010318460C37BD465DF8047B704753
:1017700080B483B000AF7860064B03F500531A467F
:101780007B68C2F8203400BF0C37BD465DF8047B8F
:10179000704700BF00C0034080B400AF034BD3F8D4
:1017A00020341846BD465DF8047B704700C00340F6
:1017B00080B582B000AF03463960FB71FB79002B26
:1017C00007D0FB79012B04D0FB79022B01D0FB79E8
:1017D000032BFA7913465B0013441B0103F1140237
:1017E000054B134439681846FFF7B0FF0346184607
:1017F0000837BD4680BD00BF30C0034080B483B011
:1018000000AF03463960FB71FB79002B07D0FB79F1
:10181000012B04D0FB79022B01D0FB79032B094863
:10182000FA7901213B68994013465B0013441B0180
:10183000034403F50153196000BF0C37BD465DF842
:10184000047B704700C0034080B483B000AF034600
:101850003960FB71FB79002B07D0FB79012B04D099
:10186000FB79022B01D0FB79032B0948FA7901217E
:101870003B68994013465B0013441B01034403F586
:101880008253196000BF0C37BD465DF8047B70477A
:1018900000C0034080B483B000AF344B5B6E03F4F0
:1018A0008033002B0CBF01230023FB712F4B03F56A
:1018B00080531A464FF4803353662C4B5B6EDB43E8
:1018C000DB0FBB71294B03F580531A464FF00043E1
:1018D0005366274B5B6C03F00103002B14BF0123FD
:1018E00000237B71224B4AF6CD321A6400BF204B95
:1018F0005B6B03F00103002BF9D11D4B03F5005383
:101900001A460123536000BF194B1B6B03F0010300
:10191000002BF9D0174BD3F8083603F00203002B45
:1019200003D1154B4FF480221A607B79002B02D033
:101930000F4B124A1A64BB79002B06D00B4B03F5F0
:1019400000531A464FF000435366FB79002B06D034
:10195000064B03F500531A464FF48033536600BF1D
:101960000C37BD465DF8047B704700BF0080004027
:101970000040094000C007405C6009403254FFFF4E
:1019800080B483B000AF786039607B683A68DA6011
:1019900000BF0C37BD465DF8047B704780B582B050
:1019A00000AFFFF7F9FE7860184B1B78002B25D0AD
:1019B0007B68022B1FD1164802F0FAFA0346002B6F
:1019C0001BD0144B1B7883F00103DBB2002B14D027
:1019D000104B01221A700E4B1B781A460E4B1A80C0
:1019E0000B4B5B781B029BB2094A927813449AB264
:1019F0000A4B1A8001E000BF00E000BF7868FFF7E3
:101A0000B7FE00BF0837BD4680BD00BF9D07002060
:101A1000440C00203E0C0020400C0020420C002012
:101A200080B500AFFFF7BAFF00BF80BD80B500AF43
:101A3000FFF7B4FF00BF80BD2DE9B043B2B002AFE5
:101A4000052004F0FBFA034619460B46013BC7F894
:101A5000A0308BB20022984691464FF000024FF022
:101A600000034FEAC90343EA58734FEAC8028BB236
:101A700000221C4615464FF000024FF00003EB0019
:101A800043EA5473E2000B460733DB08DB00ADEB9F
:101A9000030D02AB0033C7F8A430FFF7FBFE04F0E0
:101AA00019FE022005F00EF901F0AEFA01F01CFB60
:101AB00000F0B2FC04F038FE04F094FE02F0BAFC30
:101AC00002F09CFB09210020FFF7BEFE0721002049
:101AD000FFF7BAFE642005F01BF807210020FFF78E
:101AE0008DFE642005F014F80021002002F0F8FAC1
:101AF0005021802002F0F4FA0021852002F0F0FA53
:101B00000E21882002F0ECFAFFF708FE0346A7F842
:101B1000AA30FFF7F5FD034687F8AF30FFF70AFE5E
:101B20000346A7F8AC30B7F8AC1097F8AF20B7F879
:101B3000AA30804804F044FF04F09EFD02460B46A4
:101B40007D49C1E900237C4BD3E900014FF000023D
:101B50004FF000030A0000231146774BD3E900231E
:101B600013461A46754804F02BFF04F0B3FD01201C
:101B700001F008FF01F099FD4FF4877002F00CF8B6
:101B80006D4BD3E900014FF000024FF000030A0053
:101B900000231146684BD3E9002313460A466849DF
:101BA00068480BF0BFFD6748FFF788F8C7F8B40036
:101BB000D7F8B4000AF012FF0346C7F8B030D7F8E0
:101BC000B420D7F8B0105F48FFF732FDC7F8B40073
:101BD000002387F8BB301CE097F8BB30D7F8B02063
:101BE00013441B78002B0FD097F8BB309BB21433F3
:101BF00098B297F8BB309BB214339AB2012300938A
:101C00003223002102F05EF897F8BB30013387F8E9
:101C1000BB3097F8BB30D7F8B4209A42DCD8464B9B
:101C2000D3E900014FF000024FF000030A00002347
:101C30001146414BD3E9002313460A464249414825
:101C40000BF070FD0023009301233E4A3721002052
:101C500001F0B2FE07F180003A4B00930123052208
:101C6000D7F8A41004F084FB002387F8BA3030E0E2
:101C7000002387F89F3021E097F89F3031339BB2E3
:101C80005B009CB297F8BA302B339BB25B009DB2DD
:101C900097F8BA2097F89F1007F18003184604F0D0
:101CA00086FB03460093012301222946204602F0C9
:101CB000EDF897F89F30013387F89F3097F881301F
:101CC00097F89F209A42D7D397F8BA30013387F814
:101CD000BA3097F8813097F8BA209A42C8D31B4B94
:101CE00000221A701A4B01221A7001F057FD00BF32
:101CF00004210120FFF75CFD0346002BF8D101F021
:101D00001FFD012001F03EFE002387F8BB300BE0F1
:101D10000E4B1B78002B1DD1642004F0F9FE97F8C0
:101D2000BB30013387F8BB3097F8BB30632BEFD95A
:101D300011E000BF2C2F010868070020542F010874
:101D40006C2F0108A00700207C2F01083E0C00200A
:101D50009D07002000BF002001F01EFF01F08BFC5A
:101D600001F005FD012001F00DFE01F0E9FCBC4889
:101D700004F026FE852002F06FF903461946B948A3
:101D800004F01EFEB84804F01BFE862002F064F941
:101D900003461946B34804F013FEB44804F010FE9D
:101DA000872002F059F903461946AE4804F008FEB0
:101DB000AF4804F005FE882002F04EF903461946AC
:101DC000A84804F0FDFDAB4804F0FAFD892002F0BC
:101DD00043F903461946A34804F0F2FDA64804F06F
:101DE000EFFD912002F038F9034619469D4804F0B2
:101DF000E7FDA24804F0E4FD922002F02DF903462D
:101E00001946984804F0DCFD9D4804F0D9FD932064
:101E100002F022F903461946924804F0D1FD994890
:101E200004F0CEFD942002F017F9034619468D48C0
:101E300004F0C6FD944804F0C3FD952002F00CF9AF
:101E400003461946874804F0BBFD904804F0B8FDEE
:101E5000962002F001F903461946824804F0B0FDCD
:101E60008B4804F0ADFDA32002F0F6F803461946B6
:101E70007C4804F0A5FD874804F0A2FDA42002F0F0
:101E8000EBF803461946774804F09AFD824804F0BF
:101E900097FDA52002F0E0F803461946714804F0CA
:101EA0008FFD7E4804F08CFDA62002F0D5F8034695
:101EB00019466C4804F084FD794804F081FDA8209F
:101EC00002F0CAF803461946664804F079FD7548E1
:101ED00004F076FDBC2002F0BFF8034619466148C5
:101EE00004F06EFD802002F0B7F8034619466E48F4
:101EF00004F066FD852002F0AFF8034619466B48F2
:101F000004F05EFD882002F0A7F8034619466848F1
:101F100004F056FD04F022FE664B01221A7002F016
:101F200005F803461A46644B1A70634B1B78062B60
:101F300004D1624962480BF0F5FB18E05E4B1B7858
:101F4000362B04D15F495E480BF0ECFB0FE05A4B97
:101F50001B78642B04D15C4959480BF0E3FB06E085
:101F6000544B00221A70594955480BF0DBFB544979
:101F7000574804F025FD002300930123504A1E21F9
:101F8000002001F019FD01F0C5F801F0C3F8514837
:101F900004F016FD01F0B2F9C7F8BC00D7F8BC3068
:101FA000002B12D0D7F8BC305A42D7F8BC301340BF
:101FB000D7F8BC209A4208D1D7F8BC309B0A1A4601
:101FC00045493F480BF0AEFB03E044493C480BF069
:101FD000A9FB01F089F83A493D4804F0F1FC0023DF
:101FE00000930123364A3021002001F0E5FC02F085
:101FF000F7FA642004F08CFD394802F0C3FA384B3C
:102000001B781946364B5B781A46354B9B7835481A
:1020100004F0D6FC324B1B780D2B67D1304B5B782C
:102020005D2B63D12E4B9B78DB0103F4E0432C4AFC
:10203000C2F804312A4B012283F80021284BD3F83F
:102040000431002B04D0264BD3F804319B0A00E066
:1020500002231A4624491A480BF064FB4EE000BFE5
:102060008C2F0108982F0108A02F0108A82F010824
:10207000BC2F0108CC2F0108DC2F0108EC2F010830
:1020800000300108143001082C30010840300108EC
:10209000503001085C3001086830010874300108D4
:1020A000803001089030010898300108AC300108F8
:1020B000BC3001083C0C00203D0C0020CC30010855
:1020C000A0070020DC300108EC300108FC300108DA
:1020D0000C310108143101082831010830310108A0
:1020E000286900203831010854310108724B002260
:1020F00083F80021714972480BF014FB7049714854
:1021000004F05EFC0023009301236D4A302160201F
:1021100001F052FC40F2522200216B4801F0B4FB66
:1021200001F0C3FA694B1B78002B04D0684964485E
:102130000BF0F8FA03E0674961480BF0F3FA00236B
:10214000009301235E4A4021002001F035FC01206C
:1021500001F0C0FB01F001FB5C4B00221A7000F0A3
:1021600095FB0346002B04D05B4955480BF0DAFA87
:1021700003E05A4952480BF0D5FA0023009301239B
:102180004F4A5021002001F017FC01F08EFA012087
:1021900001F0A0FB01F0E1FA00F04CFC0346002B3B
:1021A00004D04F4946480BF0BDFA03E04D4944487E
:1021B0000BF0B8FA002300930123414A602100206C
:1021C00001F0FAFB012001F085FB01F0C6FA04F0F2
:1021D000C5FC01214448FFF7D3FBC82004F098FC5C
:1021E000424BD3E900014FF00002414BFEF748FAA1
:1021F00002460B462EA1D1E90001FDF7BDFF0246C4
:102200000B4610461946FEF76FF90346A7F89C30B7
:10221000364BD3E90023374929480BF083FA0023D2
:1022200000930123264A7021002001F0C5FB012004
:1022300001F050FB01F084FA03210020FFF704FBBA
:10224000C82004F065FC03210020FFF7D7FAC8205E
:1022500004F05EFC03210020FFF7F6FAC82004F02A
:1022600057FC03210020FFF7C9FAC82004F050FCF6
:1022700003210020FFF7E8FAC82004F049FC0321FD
:102280000020FFF7BBFA1C490D480BF04BFA002366
:10229000009301230A4A8021002001F08DFB0120D8
:1022A00001F018FB01F04CFA00F0FCFCFEE700BF67
:1022B0000000000000E06540286900205C31010852
:1022C000A00700200C310108ECFE00083E0C0020A5
:1022D0006431010874310108843101089431010826
:1022E000A4310108B431010800400049706A00209F
:1022F00000002240C4310108D431010880B584B007
:1023000000AF78603960214B1B7883F00103DBB2AA
:10231000002B01D01E4B34E07B68002B01D11D4BFC
:102320002FE007F0BFFAB8600023FB6022E01A4AF2
:10233000FB681B0113440C331B7883F00103DBB2F1
:10234000002B14D0FA687B681A60134AFB681B01E3
:1023500013440C3301221A700F4AFB681B0113440B
:1023600000221A60B86807F0AEFA002309E0FB68A3
:102370000133FB60FB68072BD9DDB86807F0A3FACF
:10238000064B18461037BD4680BD00BF540C0020D8
:10239000028000F0018000F0580C0020048000F062
:1023A00080B584B000AF7860164B1B7883F00103D2
:1023B000DBB2002B01D0144B1FE07B68072B01D947
:1023C000124B1AE007F06EFAF860114A7B681B01A5
:1023D00013440C331B78002B0BD00D4A7B681B0178
:1023E00013440C3300221A70F86807F06CFA0023CB
:1023F00003E0F86807F067FA064B18461037BD4649
:1024000080BD00BF540C0020028000F0018000F06D
:10241000580C0020068000F080B584B000AF194B46
:102420001B687B6002233B7107F03CFAB860164BD7
:102430001B78002B04D0B86807F045FA134B1CE05A
:10244000114B01221A70B86807F03DFA0023FB60B7
:1024500009E00F4AFB681B0113440C3300221A7079
:10246000FB680133FB60FB68072BF2DD0023FB7187
:102470003B1D184609F05CFE002318461037BD4688
:1024800080BD00BF10320108540C0020038000F012
:10249000580C002080B58CB008AFF860B9607A6045
:1024A0003B60BB6A07937B6A069397F820300593DD
:1024B000FB6904933B7E0393002302933B680193E3
:1024C0007B680093BB68FA680021002000F078F870
:1024D000034618461037BD4680BD000080B586B063
:1024E00000AF344B1B6DFB60324B5B6DFA681340E1
:1024F000FB60FB68002B00DAFEE700237B61012311
:102500003B614FE0FA683B691340002B44D0294BF4
:1025100003F500531A463B6913657B691B01264A84
:102520001344BB60BB681B68002B35D0BB689B683D
:102530005A1CBB689A60BB681B68BA689168BA6825
:102540005268786998470346002B14BF0123002383
:10255000DBB283F00103DBB2FB71FB7903F0010313
:10256000FB71BB685B7B012B16D1FB79002B13D071
:10257000124A7B695B01134403F1080213796FF37C
:10258000410313710D4A7B695B01134403F1180287
:1025900013796FF3410313717B6901337B613B69ED
:1025A0005B003B617B69072BACD900BF00BF1837CC
:1025B000BD4680BD00000440580C0020D80C00200F
:1025C00090B58BB000AFBA607B600346FB730B46DF
:1025D000BB737A4B1B7883F00103DBB2002B01D075
:1025E000774BE7E0BB68072B0FD8BB6B002B0CD0F9
:1025F000FB6B002B09D0BB6CB3F5006F05DCFB7BDC
:10260000012B04D13B6C002B01D16E4BD2E0BB6897
:102610001B016D4A13447B627B6A1B7B83F00103C1
:10262000DBB2002B01D0694BC4E007F1100300229C
:102630001A605A609A60DA60BB685B01644A1344AE
:102640003B62BB7B002B1DD13B6A1A460023136003
:1026500053609360D3603A6A937843F010039370A9
:102660003A6AD37843F03003D37097F8443083F05C
:102670000103DBB2002B22D03A6AD37843F0030384
:10268000D3701CE03B6A1A460023136053609360CA
:10269000D3603A6A937843F0100393703A6AD37820
:1026A00043F00303D37097F8443083F00103DBB2A7
:1026B000002B04D03A6AD37843F03003D3707B68A0
:1026C0003B61BB6C9BB2013B9BB2C3F30A0399B263
:1026D0003A6A138861F30E131380BA6B3B6A9A60EF
:1026E000FA6B3B6A5A6097F84C3003F00303D9B297
:1026F0003A6AD37861F38303D370FB7B012B3AD121
:102700003A6A137B43F0010313733A6A137B43F075
:10271000020313733A6AD368042161F39F03D36001
:102720002B4ABB685B01134403F110023B6A144659
:102730000FCB84E80F00264ABB685B01134403F10A
:10274000180253686FF0030161F39F0353603A6C02
:102750001F49BB685B010B4414331A60BB7B012B20
:1027600009D1FA6B1A49BB685B010B4418331A6034
:102770003A6C3B6A5A603B6D002B07D1FB7B002B08
:1027800004D13A6A93786FF3041393707B6A3A6DBD
:102790001A607B6A7A6D5A607B6A00229A607B6A53
:1027A000FA7B5A73BB6807F110013A6A184609F0C0
:1027B00005FD002318462C37BD4690BD540C002063
:1027C000028000F0018000F0580C0020078000F02B
:1027D000D80C002080B400AFBFF34F8F00BF064B72
:1027E000DB6803F4E0620449044B1343CB60BFF39E
:1027F0004F8F00BF00BFFDE700ED00E00400FA05C9
:1028000080B483B000AF786039607B681A683B6839
:1028100022FA03F303F0010318460C37BD465DF8B6
:10282000047B704780B582B000AF03463960FB710E
:10283000FB79002B07D0FB79012B04D0FB79022B0D
:1028400001D0FB79032BFA7913465B0013441B017B
:1028500003F11402054B134439681846FFF7D0FF03
:10286000034618460837BD4680BD00BF30C0034050
:1028700080B483B000AF78607B680122DA6000BF6B
:102880000C37BD465DF8047B704700002DE9F0432E
:1028900093B002AF6B461E46052003F0CFFB034604
:1028A00019460B46013BBB638BB20022984691460A
:1028B0004FF000024FF000034FEAC90343EA587398
:1028C0004FEAC8028BB200221C4615464FF00002A8
:1028D0004FF00003EB0043EA5473E2000B4607336A
:1028E000DB08DB00ADEB030D02AB00337B630023A1
:1028F000009301234A4A5021002001F05DF8012095
:1029000000F0E8FF00F01CFF464B07F114040FCB6A
:1029100084E80F000121232004F0C2FD07F1140315
:102920001946414807F0E2FD3F48FFF7A1FF0723A2
:1029300087F833303D4B00221A602DE004F090F907
:10294000034618460AF008F9002387F83F300AF0DA
:1029500031F9034687F82730334A97F82730136256
:1029600097F83F30324997F82720CA5497F83F30FC
:10297000FF2B05D097F83F30013387F83F30E6E76B
:1029800000BF2A4B1B682A49184601F08DFE274BD1
:102990001B680133254A1360244B1B68FF2BCDD9DC
:1029A000214B5B6AFB622048FFF762FF072387F831
:1029B00033301E4B00221A601EE01C4B1B681C4962
:1029C000184601F03BFE002387F83F3097F83F3070
:1029D000174AD25C144B1A6297F83F30FF2B05D090
:1029E00097F83F30013387F83F30EFE700BF0F4BD8
:1029F0001B6801330D4A13600C4B1B68FF2BDCD99D
:102A0000094B5B6ABB62BA6AFB6A9A420CBF01233C
:102A10000023DBB2B54618464437BD46BDE8F08317
:102A2000D0640108E064010800800840F80D00202F
:102A3000FC0D002090B58DB002AF00230093012360
:102A4000904A6021002000F0B7FF012000F042FF13
:102A500000F083FE8C4B3C460FCB84E80F00012135
:102A6000232004F01DFD3B461946884807F03EFD33
:102A70008648FFF7FDFE00F04DFB00F04BFB04F035
:102A8000EFF8034618460AF067F80023BB8413E00A
:102A90000AF090F803469BB203F00303BB82BB8CA1
:102AA0009B0099B2BB8CBA8A0A4491B2784A22F848
:102AB0001310BB8C0133BB84BB8CB3F5805FE7D3B1
:102AC00004F0CEF8034618460AF046F800237B844B
:102AD00022E00AF06FF803469BB2C3F30B03BB82FC
:102AE0000AF068F803469BB2C3F30B03BB84BB8AAE
:102AF000674A32F813307B82BA8CBB8A644931F85A
:102B00001210634A22F81310BB8C61497A8A21F8AB
:102B100013207B8C01337B847B8C42F20F729342B7
:102B2000D7D90023009301235A4A6021002000F0E6
:102B300043FF012000F0CEFE00F002FE072387F8DD
:102B400021300023BB844AE004F08AF8034618468B
:102B50000AF002F8002387F827300AF02BF8034622
:102B6000FB754A4AFB7D136297F827304A49FA7D84
:102B7000CA5497F82730FF2B05D097F82730013338
:102B800087F82730E9E700BF00BF00F0DDFA034611
:102B900003F00103002BF8D1062000F0F3FABB8C00
:102BA0003B4A32F813301B023C4A13603B4B1B6814
:102BB000184600F079FB00BF00F0C6FA034603F0A8
:102BC0000103002BF8D1062000F0DCFA334B1B6820
:102BD0001946314800F02CFBBB8C0133BB84BB8C05
:102BE0007F2BB1D9294B5B6AFB6100230093012342
:102BF0002B4A6021002000F0DFFE012000F06AFE79
:102C000000F09EFD2148FFF733FE072387F82130AF
:102C10000023BB8423E0BB8C1D4A32F813301B0217
:102C20001E4A13601D4B1B6819461B4800F0C2FA70
:102C3000002387F8273097F82730174AD25C134BC8
:102C40001A6297F82730FF2B05D097F82730013309
:102C500087F82730EFE700BFBB8C0133BB84BB8C08
:102C60007F2BD8D9094B5B6ABB6100F03DFABA698A
:102C7000FB699A420CBF01230023DBB218462C37B4
:102C8000BD4690BDF0640108E06401080080084082
:102C9000FC0E002000650108FC0D0020F80D00204E
:102CA0001065010880B58AB002AF01F0A7FA4FF4B1
:102CB00080520021A4480AF0D1FDA44B00221A70D2
:102CC0000023FB8304210120FFF7ACFD0346002B0A
:102CD00008D19F4B1B78002B04D000F03EFD9C4B8D
:102CE00000221A70994B1B78002B01D0FFF772FD60
:102CF0009849994B1A6813465B0013441B010B4417
:102D00006C331B68954A9B1A5B089BB2C3F30B0399
:102D10009AB2924B03F500531A80904B03F500537F
:102D20001B889AB28D4B03F500535B889BB29A4285
:102D3000C8D08A4B03F500535B889BB25A1C91B2F2
:102D4000864A02F5005251801A46844B33F81230FD
:102D50009AB2824B03F50053DA80804B03F500539F
:102D60005B889BB2C3F30B039AB27C4B03F5005311
:102D70005A807A4B03F50053DB889BB2B3F5007F92
:102D8000A0D2764B03F50053DB889BB21A466E4BFC
:102D900033F81230632B0CD8704B03F50053DB88EB
:102DA0009BB2694A32F81320013291B2664A22F886
:102DB0001310FB8B0133FB83FB8BB3F5007F81D9B1
:102DC0000023BB8300237B7433E000237B83002339
:102DD000FB821EE0BB8B5C4A32F813307A8B9A423E
:102DE00009D2BB8B584A32F813307B83BB8B3B83B1
:102DF0000023FB8204E07B8B092B01D80023FB829C
:102E0000FB8A0133FB82FB8A0A2B07D8BB8B013379
:102E1000BB83BB8BB3F5007FDCD300E000BF7B7CC2
:102E20005B0020333B443A8B23F8182C7B7C013326
:102E30007B747B7C022BC8D900233B7445E03B7C30
:102E40005B0020333B4433F8183CBB8300237B7486
:102E50000EE0BB8B3C4A32F81330002B02D1BB8B07
:102E6000BB8208E0BB8B013BBB837B7C01337B7463
:102E70007B7C1D2BEDD93B7C5B0020333B4433F83E
:102E8000183CBB8300237B740EE0BB8B2E4A32F8C8
:102E90001330002B02D1BB8B7B8208E0BB8B01334C
:102EA000BB837B7C01337B747B7C1D2BEDD97A8AC1
:102EB000BB8AD31A5A103B7C92B25B0020333B444E
:102EC00023F8202C3B7C01333B743B7C022BB6D98E
:102ED0003B891A463B88224922480AF023FC0023FA
:102EE000009301231F4A9021002000F065FD7B899B
:102EF0001A467B881C491B480AF014FC00230093E7
:102F00000123184AA021002000F056FDBB891A4673
:102F1000BB88164913480AF005FC002300930123DF
:102F2000104AB021002000F047FD012000F0FEFC17
:102F3000074B01221A704FF48052002102480AF018
:102F40008DFC0023FB83BDE6FC0E00203E0C002020
:102F5000540700200000044090000020CC470020CF
:102F600010660108A00700202066010830660108ED
:102F700080B483B000AF03463960FB71FB79002B4E
:102F800007D0FB79012B04D0FB79022B01D0FB7910
:102F9000032B0948FA7901213B68994013465B00ED
:102FA00013441B01034403F50153196000BF0C37A0
:102FB000BD465DF8047B704700C0034080B483B019
:102FC00000AF03463960FB71FB79002B07D0FB791A
:102FD000012B04D0FB79022B01D0FB79032B09488C
:102FE000FA7901213B68994013465B0013441B01A9
:102FF000034403F58253196000BF0C37BD465DF8EA
:10300000047B704700C00340B0B588B000AF304BC0
:103010003C1D1D460FCD0FC495E8070084E807004E
:103020000023BB820123BB742A4BFB6001212920B2
:1030300004F036FA01213A2004F032FA0023042287
:103040000321032007F0C4FB0023042206210020F3
:1030500007F0BEFB002302220421012007F0B8FB89
:10306000012304220221032007F0B2FB01230422E2
:103070000021022007F0ACFB0123042202210220E0
:1030800007F0A6FB012302220121022007F0A0FB8A
:10309000002304220321022007F09AFB3B1D19465E
:1030A0000D4809F09CFB0D4B4FF00212C3F8B027FE
:1030B0000A4B0B4AC3F8A827084B0A4AC3F8AC27A7
:1030C000064B1C22C3F8982700BF2037BD46B0BD71
:1030D000786601088096980000C0054000C0034053
:1030E000020001000200030080B500AF00210220B1
:1030F000FFF764FF00210220FFF73AFF792104481F
:1031000009F02EFC00210220FFF758FF00BF80BD10
:1031100000C0054080B500AF00210220FFF74EFF40
:1031200000210220FFF724FFAB21064809F018FC1C
:1031300000210220FFF742FF012003F0E9FC00BF5D
:1031400080BD00BF00C0054080B500AF0021022057
:10315000FFF70EFF0521094809F002FC002107488E
:1031600009F0FEFB03461A46054B1A7000210220A7
:10317000FFF724FF024B1B78184680BD00C00540B6
:103180008C30002080B582B000AF0346FB71002177
:103190000220FFF7EDFEFB791946054809F0E0FB38
:1031A00000210220FFF70AFF00BF0837BD4680BD9F
:1031B00000C0054090B585B000AF786039604FF42D
:1031C0008073FB6000210220FFF7D2FE0321174825
:1031D00009F0C6FB3B681B0CDBB21946134809F02B
:1031E000BFFB3B681B0ADBB21946104809F0B8FB6D
:1031F0003B68DBB219460D4809F0B2FB08E07C6879
:10320000631C7B600021094809F0AAFB0346237078
:10321000FB685A1EFA60002BF1D100210220FFF753
:10322000CDFE00BF1437BD4690BD00BF00C00540B5
:1032300080B584B000AF786039604FF48073FB6074
:1032400000210220FFF794FE0221164809F088FBB6
:103250003B681B0CDBB21946124809F081FB3B6846
:103260001B0ADBB219460F4809F07AFB3B68DBB258
:1032700019460C4809F074FB07E07B685A1C7A6019
:103280001B781946074809F06BFBFB685A1EFA6069
:10329000002BF2D100210220FFF790FE00BF103773
:1032A000BD4680BD00C0054080B582B000AF7860EB
:1032B00000210220FFF75CFE81210F4809F050FB3E
:1032C0007B681B0CDBB219460B4809F049FB7B6895
:1032D0001B0ADBB21946084809F042FB7B68DBB2E7
:1032E0001946054809F03CFB00210220FFF766FE65
:1032F00000BF0837BD4680BD00C0054080B584B022
:1033000000AF0023BB6000210220FFF731FE5A21ED
:10331000334809F025FB0023FB730DE00021304802
:1033200009F01EFB0346BB73BB7B19462D4803F017
:1033300047FBFB7B0133FB73FB7B0A2BEED9BB7B8B
:103340000133BB730021264809F00AFB0346FB73D7
:10335000FB7B1946234803F033FB0023FB730DE08E
:1033600000211F4809F0FCFA0346FB71FB7919465E
:103370001C4803F025FBFB7B0133FB73BB7BDB00AD
:10338000DA1CFB7B9A42EBDA0023FB7315E0002189
:10339000134809F0E5FA0346BB73BB7B1946114895
:1033A00003F00EFBBB681B0ABB60BB7B1B06BA6845
:1033B0001343BB60FB7B0133FB73FB7B032BE6D921
:1033C000BB680133BB6000210220FFF7F7FD064810
:1033D00003F0F6FABB685B0B18461037BD4680BD9C
:1033E00000C00540946601089C66010880B483B063
:1033F00000AF786039607B681A683B6822FA03F393
:1034000003F0010318460C37BD465DF8047B704796
:1034100080B582B000AF03463960FB71FB79002BA9
:1034200007D0FB79012B04D0FB79022B01D0FB796B
:10343000032BFA7913465B0013441B0103F11402BA
:10344000054B134439681846FFF7D0FF034618466A
:103450000837BD4680BD00BF30C0034080B483B094
:1034600000AF03463960FB71FB79002B07D0FB7975
:10347000012B04D0FB79022B01D0FB79032B0948E7
:10348000FA7901213B68994013465B0013441B0104
:10349000034403F50153196000BF0C37BD465DF8C6
:1034A000047B704700C0034080B483B000AF034684
:1034B0003960FB71FB79002B07D0FB79012B04D01D
:1034C000FB79022B01D0FB79032B0948FA79012102
:1034D0003B68994013465B0013441B01034403F50A
:1034E0008253196000BF0C37BD465DF8047B7047FE
:1034F00000C0034080B582B000AF0346FB710221DB
:103500000320FFF7D1FF02210320FFF7A7FF0321CC
:103510000320FFF7A3FFFB791946054809F020FABD
:1035200002210320FFF7C0FF00BF0837BD4680BD62
:1035300000C0054080B582B000AF0346FB71032197
:103540000320FFF7B1FF02210320FFF7ADFF0221A7
:103550000320FFF783FFFB791946054809F000FABD
:1035600002210320FFF7A0FF00BF0837BD4680BD42
:1035700000C0054080B582B000AF7860396007E0D8
:103580007B685A1C7A601B781946064809F0E8F9EE
:103590003B685A1E3A60002BF2D100BF00BF0837CB
:1035A000BD4680BD00C0054080B582B000AF034677
:1035B0003960FB7102210320FFF750FF0321032034
:1035C000FFF772FF04E0FB791946084809F0C8F9D3
:1035D0003B685A1E3A60002BF5D102210320FFF709
:1035E00063FF00BF0837BD4680BD00BF00C0054077
:1035F00080B582B000AF0346FB7103210320FFF7C3
:103600002DFF02210320FFF729FFFB791946074808
:1036100009F0A6F902210320FFF746FF022103204B
:10362000FFF742FF00BF0837BD4680BD00C0054020
:1036300080B500AF012003F06BFA06210020FFF7F0
:103640000DFF052003F064FA06210020FFF72CFF90
:103650000A2003F05DFA06210020FFF7FFFE052097
:1036600003F056FA02210320FFF71EFF052003F0A6
:103670004FFA00BF80BD80B500AFFFF7D9FF00BF94
:1036800004210120FFF7C4FE0346002BF8D11220CD
:10369000FFF7AEFF00BF04210120FFF7B9FE03468C
:1036A000002BF8D100BF00BF80BD80B500AFFFF791
:1036B000BFFF00BF04210120FFF7AAFE0346002B35
:1036C000F8D11220FFF794FF00BF04210120FFF77B
:1036D0009FFE0346002BF8D11820FFF70BFF802038
:1036E000FFF728FF2220FFF705FFB120FFF722FF99
:1036F0002020FFF7FFFE00BF04210120FFF788FE16
:103700000346002BF8D11A20FFF7F4FE6420FFF7E0
:1037100011FF0020FFF70EFF2220FFF7EBFE9120A4
:10372000FFF708FF2020FFF7E5FE00BF042101207E
:10373000FFF76EFE0346002BF8D100BF00BF80BD2F
:1037400080B500AF1020FFF7D5FE0120FFF7F2FE95
:10375000642003F0DDF900BF80BD80B500AF10200C
:10376000FFF7C8FE0120FFF7E5FE00BF80BD80B572
:1037700000AF2420FFF7BEFE41F2B061FF20FFF74B
:1037800013FF2620FFF7B6FE41F2B061FF20FFF7DE
:103790000BFF00F023F800BF80BD000080B582B0B1
:1037A00000AF2420FFF7A6FE00237B6009E00A4A51
:1037B0007B6813441B781846FFF7BCFE7B68013317
:1037C0007B607B6841F2AF629342F0D900F01CF855
:1037D00000BF0837BD4680BDB030002080B500AFC7
:1037E0002220FFF787FEF720FFF7A4FE2020FFF737
:1037F00081FE00BF04210120FFF70AFE0346002BD3
:10380000F8D100BF00BF80BD80B500AF2220FFF718
:1038100071FEC720FFF78EFE2020FFF76BFE012010
:1038200003F076F900BF04210120FFF7F1FD034604
:10383000002BF8D100BF00BF80BD80B500AF2220B3
:10384000FFF758FEFF20FFF775FE2020FFF752FE1E
:10385000012003F05DF900BF04210120FFF7D8FD2E
:103860000346002BF8D100BF00BF80BD80B500AF7C
:103870002220FFF73FFEFF20FFF75CFE2020FFF72E
:1038800039FE00BF80BD000080B487B000AFF86093
:103890000B467A607B810023FB820EE0FB685A1C9A
:1038A000FA60F98A7A89162000FB02F20A44197834
:1038B000074B9954FB8A0133FB82FB8A7A689A4250
:1038C000ECD800BF00BF1C37BD465DF8047B7047D5
:1038D000B030002080B582B000AF0346FB71FB79A9
:1038E000002B07D0FFF7A4FE3C20FFF703FE80204B
:1038F000FFF720FE2420FFF7FDFD02210320FFF744
:10390000ADFD03210320FFF7CFFD41F2B061064872
:10391000FFF730FE02210320FFF7C6FDFFF78DFF02
:1039200000BF0837BD4680BDB030002080B582B0F2
:1039300000AF0346FB71FB79002B07D0FFF778FE41
:103940003C20FFF7D7FD8020FFF7F4FD2420FFF790
:10395000D1FD02210320FFF781FD03210320FFF7A2
:10396000A3FD41F2B0610648FFF704FE02210320E7
:10397000FFF79AFDFFF77AFF00BF0837BD4680BD0D
:10398000B030002080B582B000AF0346FB71FB79F8
:10399000002B02D0FF23FB7101E00023FB71FB79B8
:1039A00041F2B0621946034809F058FF00BF0837DA
:1039B000BD4680BDB030002080B588B000AFBA6091
:1039C0001A460346FB810B46BB811346FB80B86851
:1039D000FCF74EFEB86101233B77FA883B8D9A4293
:1039E00009D100233B77FB88002B02D00023FB800A
:1039F00001E00123FB8000237B77A9E07B7FBA688D
:103A000013441B78203BFB750023FB7799E0FB7F79
:103A10005B00DAB2FB7D1146184600F0A3F80346BE
:103A2000BB75FB7F5B00DBB20133DAB2FB7D114675
:103A3000184600F097F803467B750023BB777AE0C1
:103A4000BA7DBB7F42FA03F303F00103002B17D0CA
:103A50007B7F9BB21A46520013449B009AB2FB89AB
:103A600013449AB2FB7F9BB2134498B2BB7F9AB2C5
:103A7000BB8913449BB2FA88194600F09DF819E0FF
:103A80003B7F002B16D07B7F9BB21A46520013441B
:103A90009B009AB2FB8913449AB2FB7F9BB21344FA
:103AA00098B2BB7F9AB2BB8913449BB23A8D194638
:103AB00000F082F87A7DBB7F42FA03F303F0010342
:103AC000002B19D07B7F9BB21A46520013449B00F7
:103AD0009AB2FB8913449AB2FB7F9BB2134498B20B
:103AE000BB7F9AB2BB8913449BB208339BB2FA885E
:103AF000194600F061F81BE03B7F002B18D07B7F5C
:103B00009BB21A46520013449B009AB2FB8913449D
:103B10009AB2FB7F9BB2134498B2BB7F9AB2BB8927
:103B200013449BB208339BB23A8D194600F044F817
:103B3000BB7F0133BB77BB7F072B81D9FB7F013371
:103B4000FB77FB7F0B2B7FF662AF7B7F01337B77AD
:103B50007B7FBA699A423FF651AF00BF00BF203762
:103B6000BD4680BD80B483B000AF03460A46FB71FA
:103B70001346BB71FA79B979064813465B001344C2
:103B8000DB0003440B441B7818460C37BD465DF838
:103B9000047B70475C99010880B483B000AF034692
:103BA000FB80044AFB88138000BF0C37BD465DF8DC
:103BB000047B70476047002080B487B000AF0346A5
:103BC000FB800B46BB8013467B8016237B823B4BDE
:103BD0001B88B3F5877F21D0B3F5877F65DCB42BD5
:103BE00012D0B42B61DC002B02D05A2B05D05CE044
:103BF000FB88FB82BB88BB8218E0BB88C3F1AF03A4
:103C0000FB82FB88BB8211E0FB88C3F1AF03FB8220
:103C1000BB88C3F583730133BB8207E0BB88FB829B
:103C2000FB88C3F583730133BB8200BFFB8AC3F1FA
:103C3000AF03FB8200BFFB8AAF2B38D8BB8AB3F53A
:103C4000847F34D2FB8ADB089AB2B98A7B8A11FB63
:103C500003F39BB213443B823B8A194AD35CFB7348
:103C60007B88012B11D1FB8A03F00703802242FAE3
:103C700003F35BB2DB435AB297F90F3013405AB2E9
:103C80003B8AD1B20E4AD15412E0FB8A03F00703FB
:103C9000802242FA03F35AB297F90F3013435AB213
:103CA0003B8AD1B2064AD15402E000BF00E000BF17
:103CB0001C37BD465DF8047B704700BF604700209D
:103CC000B030002090B587B000AF044608461146DA
:103CD0001A462346FB800346BB800B467B80134677
:103CE0003B80FA887B889A4205D27A88FB88D31A6F
:103CF0009BB21BB204E0FA887B88D31A9BB21BB23A
:103D00007B82BA883B889A4205D23A88BB88D31A0C
:103D10009BB21BB204E0BA883B88D31A9BB21BB299
:103D20003B82FA887B889A4201D2012301E04FF05E
:103D3000FF33FB81BA883B889A4201D2012301E01C
:103D40004FF0FF33BB81B7F91220B7F910309A4218
:103D500006DDB7F91230DA0F13445B101BB206E030
:103D6000B7F91030DA0F13445B105B421BB2FB82D1
:103D7000B7F91230002B28D13A88BB889A4205D275
:103D80003B883B81BB883B803B89BB807A88FB8832
:103D90009A4205D27B883B81FB887B803B89FB80F4
:103DA000BB88BB820BE0B98A3A8DFB881846FFF7C7
:103DB00003FFB7F914309BB201339BB2BB82B7F952
:103DC00014203B889A42EEDD5DE0B7F91030002BFD
:103DD00028D13A88BB889A4205D23B883B81BB8870
:103DE0003B803B89BB807A88FB889A4205D27B88DE
:103DF0003B81FB887B803B89FB80FB88BB820BE09F
:103E0000BB8A3A8DB9881846FFF7D6FEB7F9143049
:103E10009BB201339BB2BB82B7F914207B889A42D4
:103E2000EEDD30E03A8DB988FB881846FFF7C4FE16
:103E3000FA887B889A4203D1BA883B889A4221D07B
:103E4000FB8A7B81B7F90A20B7F912305B429A42AC
:103E500008DDFA8A3B8AD31A9BB2FB82FA89FB8877
:103E60001344FB80B7F90A20B7F910309A42D9DA27
:103E7000FA8A7B8A13449BB2FB82BA89BB881344BB
:103E8000BB80CFE700BF1C37BD4690BD90B587B063
:103E900002AF0446084611461A462346FB800346F5
:103EA000BB800B467B8013463B80FB88AF2B39D809
:103EB000BB88B3F5847F35D2FA887B881344AF2B57
:103EC00003DDFB88C3F1B0037B80BA883B881344D1
:103ED000B3F5847F03DBBB88C3F584733B80002389
:103EE000FB7319E0FB7B9AB2BB88134499B2FA8842
:103EF0007B8813449CB2FB7B9AB2BB8813449AB272
:103F000097F820309BB2F888009313462246FFF7BB
:103F1000D9FEFB7B0133FB73FB7B9BB23A889A4251
:103F2000E0D200E000BF1437BD4690BD80B582B03E
:103F300000AF1B4B70221A80194B04225A80194B78
:103F4000A3221A70164B174A5A60154B01221A8188
:103F5000134B154ADA60124B01221A8210494FF0B6
:103F6000964007F061F803467B60104B1B683B608E
:103F70000BE04FF0964006F0EBFD03467B600B4BE9
:103F80001A683B68D31A0A2B03D87B68012BF0D040
:103F900000E000BF044B1B7818460837BD4680BDC3
:103FA0008C470020A8470020A0470020786A002006
:103FB00080B584B000AF7860234B70221A80224B0A
:103FC00004225A80214B02221A701F4B1F4A5A604A
:103FD0001D4B01221A811C4B1D4ADA601A4B052227
:103FE0001A821C4B1B68BB6017494FF0964007F0C4
:103FF0001BF80346FB600BE04FF0964006F0A8FD6F
:104000000346FB60134B1A68BB68D31A0A2B03D80C
:10401000FB68012BF0D000E000BF7B685A1C7A607F
:104020000B4A92781A707B685A1C7A60084AD278D8
:104030001A70074B1A797B681A70054B1B78184663
:104040001037BD4680BD00BF8C470020A847002028
:10405000A0470020786A002080B584B000AF0346F6
:10406000FB711B4B70221A80194B04225A80194A8B
:10407000FB791370164B174A5A60154B01221A81AF
:10408000134B154ADA60124B01221A8210494FF085
:10409000964006F0C9FF0346FB60104B1B68BB60EF
:1040A0000DE04FF0964006F053FD0346FB600B4BCE
:1040B0001A68BB68D31A0A2B01D9002304E0FB68F5
:1040C000012BEED0044B1B7818461037BD4680BD3F
:1040D0008C470020A8470020A0470020786A0020D5
:1040E00080B584B000AF03460A46FB711346BB712E
:1040F000184B70221A80174B01225A80164AFB79FE
:104100001370154ABB795370124B134A5A60114B06
:1041100002221A810F494FF0964006F085FF0346B0
:10412000FB600E4B1B68BB600BE04FF0964006F047
:104130000FFD0346FB60094B1A68BB68D31A0A2BB4
:1041400003D8FB68012BF0D000E000BF1037BD465C
:1041500080BD00BF8C470020A8470020786A00205F
:1041600080B483B000AF0346FB7197F90730002B92
:104170000BDBFB7903F01F02074997F907305B0956
:10418000012000FA02F241F8232000BF0C37BD469F
:104190005DF8047B704700BF00E100E080B483B0AD
:1041A00000AF786039607B6803F500531A463B68BE
:1041B000536100BF0C37BD465DF8047B704780B487
:1041C00083B000AF786039607B689A693B681A43B6
:1041D0007B689A6100BF0C37BD465DF8047B704771
:1041E00080B483B000AF78607B680122DA6000BFE2
:1041F0000C37BD465DF8047B7047000080B500AF0A
:1042000001213A2003F04CF90121242003F048F960
:104210000121252003F044F9002303220821002076
:1042200006F0D6FA274B03F580531A460123C2F84D
:10423000F836244B03F580531A464FF40023C2F896
:10424000FC36214A0021214808F0E1F91D4B03F515
:1042500080531A460123C2F818371A4B03F58053CE
:104260001A464FF40023C2F81C3701211848FFF703
:10427000A6FF0520FFF774FF1649144808F040F91F
:104280001549134808F03CF9144B1B68144A1549AA
:10429000184607F093FF0121232003F001F9124B88
:1042A00041F221021A60104B46F263325A600E4B03
:1042B00000225A720C490D4806F018F900F032F845
:1042C00000BF80BD00C00340A40000200080044067
:1042D00000C00440B4000020C40000209000002072
:1042E000ACB301089CB30108940000200080084092
:1042F00080B500AF11210248FFF750FF00BF80BD1D
:104300000080044080B500AF044B01221A701121D7
:104310000348FFF743FF00BF80BD00BFDD670020FB
:1043200000C0044080B500AF0D48FFF759FF0D4BAA
:1043300000221A700C4B00221A700C4B00221A70CB
:104340000B4B03F5005300225A720A4B00221A60ED
:10435000094B00221A70094B01221A7000BF80BD60
:1043600000800840D7670020D8670020D967002068
:10437000CC470020E0680020DB670020DC670020DD
:1043800080B483B000AF03463960FB71FB79002B2A
:1043900007D0FB79012B04D0FB79022B01D0FB79EC
:1043A000032B0948FA7901213B68994013465B00C9
:1043B00013441B01034403F50153196000BF0C377C
:1043C000BD465DF8047B704700C0034080B483B0F5
:1043D00000AF03463960FB71FB79002B07D0FB79F6
:1043E000012B04D0FB79022B01D0FB79032B094868
:1043F000FA7901213B68994013465B0013441B0185
:10440000034403F58253196000BF0C37BD465DF8C5
:10441000047B704700C0034080B400AF044B00220F
:1044200083F8082100231846BD465DF8047B7047D9
:1044300028690020B0B58EB000AF294B07F12404E5
:104440001D460FCD0FC42B682360264B3C1D1D4617
:104450000FCD0FC495E80F0084E80F0001213A202A
:1044600003F01EF80121582003F01AF83B1D7B636E
:1044700001237B72002387F83230012304220421B8
:10448000022006F0A5F9002304220621022006F0EE
:104490009FF9012302220521022006F099F9002349
:1044A00004220721022006F093F90F4B0F4AC3F8AC
:1044B0001C250D4B0E4AC3F814250B4B0D4AC3F8AF
:1044C0001825094B1C22C3F8042507F124031946BB
:1044D000094805F013FB00BF3837BD46B0BD00BF2B
:1044E000CCB30108E0B3010800C00340020006009D
:1044F000020005000200070000400A4080B582B0BB
:1045000000AF0346FB71FB799BB21946044805F0E6
:10451000E1FB0346DBB218460837BD4680BD00BF4D
:1045200000400A4080B582B000AF7860396006E094
:104530007B685A1C7A601B781846FFF7DFFF3B68E0
:104540005A1E3A60002BF3D100BF00BF0837BD46AA
:1045500080BD90B583B000AF7860396007E07C68BB
:10456000631C7B60FF20FFF7C9FF034623703B6895
:104570005A1E3A60002BF2D100BF00BF0C37BD4677
:1045800090BD000080B582B000AF786000BF124BD4
:1045900093F80831002BFAD10F4B012283F8082140
:1045A00004210220FFF7ECFE9F20FFF7A7FF032165
:1045B0000A48FFF7B7FF03217868FFF7CAFF042115
:1045C0000220FFF703FF044B002283F8082100BFFD
:1045D0000837BD4680BD00BF28690020186900204B
:1045E00080B500AF00BF144B93F80831002BFAD10F
:1045F000114B012283F8082104210220FFF7E6FE77
:1046000004210220FFF7BCFE6620FFF777FF04219C
:104610000220FFF7DBFE04210220FFF7B1FE992004
:10462000FFF76CFF04210220FFF7D0FE024B0022AF
:1046300083F8082100BF80BD2869002080B584B0C0
:1046400000AF786039607B681B02FB6000BF154BD0
:1046500093F80831002BFAD104210220FFF790FED5
:104660000320FFF74BFFFB681B0CDBB21846FFF77C
:1046700045FFFB681B0ADBB21846FFF73FFFFB68EC
:10468000DBB21846FFF73AFF4FF480713868FFF746
:1046900060FF04210220FFF799FE00BF1037BD46DE
:1046A00080BD00BF2869002080B58AB006AF786061
:1046B00039607B681B02FB6000BF294B93F808310F
:1046C000002BFAD1264B012283F808210421022075
:1046D000FFF756FE0220FFF711FFFB681B0CDBB251
:1046E0001846FFF70BFFFB681B0ADBB21846FFF703
:1046F00005FFFB68DBB21846FFF700FF00211948F1
:10470000FDF7FCFD174B186800230493164B039329
:10471000002302934FF480730193012300933B68BD
:10472000124A1349FDF7B6FE00BF0D4B93F808314E
:10473000002BFAD101E00F4BDB6B0E4B9B6C03F0AF
:104740008003002BF7D1074B1B681846FDF728FEA6
:1047500004210220FFF73AFE00BF1037BD4680BD9E
:1047600028690020346A00201944000844400A40A7
:104770000100120000400A4080B483B000AF7860AE
:1047800039607A683B689A4201DD7B6800E03B68EB
:1047900018460C37BD465DF8047B704780B483B083
:1047A00000AF0346FB71FB792F2B07D9FB79392B1F
:1047B00004D8FB79303BDBB25BB25BE0FB79402B8A
:1047C00007D9FB795A2B04D8FB79373BDBB25BB2B4
:1047D00050E0FB79203B1A2B4AD801A252F823F073
:1047E0004D480008714800087148000871480008E9
:1047F00051480008554800087148000871480008F1
:104800007148000871480008594800085D480008D0
:1048100071480008614800086548000869480008B8
:104820007148000871480008714800087148000884
:104830007148000871480008714800087148000874
:1048400071480008714800086D480008242311E0F1
:1048500025230FE026230DE027230BE0282309E082
:10486000292307E02A2305E02B2303E02C2301E082
:104870004FF0FF3318460C37BD465DF8047B704798
:1048800080B582B000AF78600B467B800FE07B88FC
:10489000013B7B807B887A6813441B781846FFF7BE
:1048A0007DFF0346B3F1FF3F01D1002303E07B8886
:1048B000002BECD1012318460837BD4680BD80B4DB
:1048C00085B000AF78600B467B800FE07B88013BB2
:1048D0007B807B887A6813441B78FB73FB7B2F2BD0
:1048E00002D9FB7B392B01D9002303E07B88002B05
:1048F000ECD1012318461437BD465DF8047B7047A0
:1049000080B485B000AF03460A46FB711346BB7105
:10491000134BFB60FB79092B02D9FB685B0AFB6038
:10492000FB791A2B02D9FB685B0AFB60BA79134644
:104930005B001344FA6822FA03F3DBB203F00703C7
:10494000DBB20833FB72FB7A0F2B01D11023FB7211
:10495000FB7A18461437BD465DF8047B704700BFEC
:104960000AB8BB0780B483B000AF0346FB71FB7984
:10497000FA7902FB03F30733002B00DA0733DB106D
:104980009BB218460C37BD465DF8047B704780B477
:1049900083B000AF78607B680733DB089BB21846B2
:1049A0000C37BD465DF8047B704780B584B000AF1E
:1049B000F860B9607A60FB6800221A607B689AB27E
:1049C000FB689A80FB68BA689A60FB689B881A4605
:1049D0000021B86808F042FF00BF1037BD4680BD17
:1049E00080B584B000AFF860B9601346FB71FA7906
:1049F000FB681A60FB791846FFF7B4FF03461A46B6
:104A0000FB689A80FB68BA689A60FB689B881A46C4
:104A10000021B86808F022FF00BF1037BD4680BDF6
:104A200080B487B000AFF860B9601346FB71FB68D3
:104A30001B687B61FB79013BDBB2FB7424E0FB6804
:104A40009A687B69DB081344197897F91330BA68C0
:104A500022FA03F303F001027B69DB4303F007034F
:104A600002FA03F3DAB2FB6898687B69DB08034457
:104A70000A43D2B21A7097F91330DBB2013BDBB2B2
:104A8000FB747B6901337B6197F91330002BD6DA15
:104A9000FB687A691A6000BF1C37BD465DF8047B6D
:104AA000704780B485B000AF7860084611461A465A
:104AB0000346FB700B46BB7013467B70BB787A686D
:104AC000126803FB02F2FB781344FB60FB68DB43D4
:104AD00003F00703012202FA03F3FB727B78002B39
:104AE0000FD07B689A68FB68DB08134419787B68F1
:104AF0009A68FB68DB081344FA7A0A43D2B21A7048
:104B000013E07B689A68FB68DB0813441B785AB291
:104B100097F90B30DB435BB2134059B27B689A685C
:104B2000FB68DB081344CAB21A7000BF1437BD46D5
:104B30005DF8047B704780B485B000AF78600846AC
:104B400011461A460346FB700B46BB7013467B703A
:104B5000BB787A68126803FB02F2FB781344FB60AF
:104B6000FB68DB4303F00703012202FA03F3FB7245
:104B70007B689A68FB68DB0813441B781A46FB685D
:104B8000DB4303F0070342FA03F303F00103002BB6
:104B900014BF01230023BB72BA7A7B789A420FD0EC
:104BA0007B689A68FB68DB08134419787B689A680D
:104BB000FB68DB081344FA7A0A43D2B21A7013E096
:104BC0007B689A68FB68DB0813441B785AB297F934
:104BD0000B30DB435BB2134059B27B689A68FB68C9
:104BE000DB081344CAB21A7000BF1437BD465DF823
:104BF000047B704780B485B000AF78600B46FB70D3
:104C00001346BB70BB787A68126803FB02F2FB782C
:104C10001344FB607B689A68FB68DB0813441B78CD
:104C20001A46FB68DB4303F0070342FA03F303F081
:104C30000103002B14BF01230023DBB218461437F5
:104C4000BD465DF8047B704780B586B000AFF86064
:104C5000B9601346FB71FB681B683B750023FB754D
:104C6000D6E00023BB75CBE0FA7DBB7D1946B86862
:104C7000FFF7C0FF0346002B40F0BE8000237B758A
:104C8000FB79072B00F2B18001A252F823F000BF9C
:104C9000B14C0008C94C0008DD4C0008FD4C000870
:104CA000214D0008474D00087B4D0008B34D00081A
:104CB000BA7DFB7D1344DBB203F00103002B0CBF74
:104CC000012300237B7590E0FB7D03F00103DBB241
:104CD000002B0CBF012300237B7586E0BA7D514B6E
:104CE000A3FB021359080B465B000B44D31ADBB23B
:104CF000002B0CBF012300237B7576E0BA7DFB7D82
:104D0000D118494B83FB0132CB17D21A13465B00F3
:104D10001344CA1A002A0CBF012300237B7564E0E8
:104D2000BB7D404AA2FB03235B08DAB2FB7D5B0834
:104D3000DBB21344DBB203F00103002B0CBF0123F1
:104D400000237B7551E0BB7DFA7D02FB03F303F08A
:104D50000100BB7DFA7D02FB03F1334B83FB013283
:104D6000CB17D21A13465B001344CA1A8318002BC0
:104D70000CBF012300237B7537E0BB7DFA7D02FB6E
:104D800003F303F00100BB7DFA7D02FB03F1264B28
:104D900083FB0132CB17D21A13465B001344CA1AA5
:104DA000831803F00103002B0CBF012300237B7544
:104DB0001BE0BA7DFB7D1344DBB203F00100BB7D39
:104DC000FA7D02FB03F1184B83FB0132CB17D21A99
:104DD00013465B001344CA1A831803F00103002B27
:104DE0000CBF012300237B7500BF7B7DFA7DB97D5D
:104DF000F868FFF7A0FE00E000BFBB7D0133BB7584
:104E0000BA7D3B7D9A42FFF42FAFFB7D0133FB75EA
:104E1000FA7D3B7D9A42FFF424AF00BF00BF1837F4
:104E2000BD4680BDABAAAAAA5655555580B584B0DB
:104E300000AFF860B96011461A460B46FB71134685
:104E4000BB713B7EBA79F979F868FFF72AFEBA7927
:104E5000F9790123B868FFF724FE00BF1037BD467B
:104E600080BD80B588B002AFF860B96011461A46BF
:104E70000B46FB711346BB71FB681B687B75FC23FB
:104E8000FB755BE0FC23BB754EE097F91730002BF8
:104E9000B8BF5B42DBB21A4697F91630002BB8BF99
:104EA0005B42DBB219461046FFF766FC03463B75D2
:104EB000FB791AB297F916301BB213447B82BB7987
:104EC0001AB297F917301BB213443B82B7F912306C
:104ED000002B23DBB7F912207B7D9A421EDAB7F94B
:104EE0001030002B1ADBB7F910207B7D9A4215DABF
:104EF0007B8ADAB23B8AD9B23B7D022B04D03B7D60
:104F0000042B01D0012300E0002303F00103DBB2F6
:104F100000930B46B968F868FFF788FF97F91630D9
:104F2000DBB20133DBB2BB7597F91630042BACDD75
:104F300097F91730DBB20133DBB2FB7597F9173005
:104F4000042B9FDD00BF00BF1837BD4680BDB0B544
:104F500088B002AFF860B96011461A460B46FB7183
:104F60001346BB71FE23FB7538E0FE23BB752BE0B7
:104F7000BA7DFB791344DCB2FA7DBB791344DDB210
:104F800097F91730002BB8BF5B42DBB21A4697F98E
:104F90001630002BB8BF5B42DBB219461046FFF754
:104FA000EBFB0346012B14BF01230023DBB200936C
:104FB0002B462246B968F868FFF738FF97F9163094
:104FC000DBB20133DBB2BB7597F91630022BCFDDB4
:104FD00097F91730DBB20133DBB2FB7597F9173065
:104FE000022BC2DD00BF00BF1837BD46B0BD80B583
:104FF0008CB002AFF860B96011461A460B46FB71DF
:105000001346BB71FB681B68FB76FB79DA00BB7942
:1050100013437B617B697B6200233B620CE07B6A0C
:105020005A007B6A5B0A40F2375101FB03F353409D
:105030007B623B6A01333B623B6A092BEFDD7B6994
:105040009B027A6A13437B617B6983F4A84383F0F4
:1050500012037B610023FB7715E0FB7F7A6922FA5C
:1050600003F303F00103002B14BF01230023DBB281
:10507000FA7F009313460822B968F868FFF7D6FE56
:10508000FB7F0133FB77FB7F052BE6D97B6903F0C0
:105090004003002B14BF01230023DBB2009307233E
:1050A0000822B968F868FFF7C1FE7B6903F0800346
:1050B000002B14BF01230023DBB200930823082236
:1050C000B968F868FFF7B2FE7B6903F48073002BC0
:1050D00014BF01230023DBB2009308230722B96821
:1050E000F868FFF7A3FE0923BB771CE0BB7FC3F181
:1050F0000E03D9B297F91E307A6922FA03F303F04E
:105100000103002B14BF01230023DBB2009308230B
:105110000A46B968F868FFF789FE97F91E30DBB2D6
:105120000133DBB2BB7797F91E300E2BDEDD002397
:105130007B771EE07B7FFA7ED31ADBB2013BD9B2CC
:1051400097F91D307A6922FA03F303F00103002B6B
:1051500014BF01230023DBB2009308230A46B96879
:10516000F868FFF763FE97F91D30DBB20133DBB25D
:105170007B7797F91D30072BDCDD08233B771EE09A
:105180003A7FFB7E1344DBB20F3BD9B297F91C3058
:105190007A6922FA03F303F00103002B14BF012301
:1051A0000023DBB200930B460822B968F868FFF7CA
:1051B0003DFE97F91C30DBB20133DBB23B7797F948
:1051C0001C300E2BDCDDFB7E083BDBB201220092A3
:1051D0000822B968F868FFF729FE00BF2837BD46E6
:1051E00080BD000080B58AB002AFF860B960134698
:1051F000FB71FB681B687B76FB79062B55D9FB7925
:10520000FB610023FB760CE0FB695A00FB69DB0ABB
:1052100041F6257101FB03F35340FB61FB7E013333
:10522000FB76FB7E0B2BEFD9FB791B03FA6913434B
:105230007B610023BB7634E0BB7E7A6922FA03F3FC
:1052400003F00103002B14BF01230023FB74BA7E7B
:10525000184BA3FB021359080B465B000B44D31AEF
:10526000DAB27B7E1344DBB20B3BBB74BB7E114ACC
:10527000A2FB03235B087B74797CBA7CFB7C0093E4
:105280000B46B968F868FFF7D1FDB97C7A7CFB7CE6
:1052900000930B46B968F868FFF7C8FDBB7E013381
:1052A000BB76BB7E112BC7D900E000BF2037BD46BF
:1052B00080BD00BFABAAAAAA2DE9F0438DB002AF12
:1052C000F860B96011461A460B46FB711346BB7174
:1052D000FB681B6887F82030002387F8273029E017
:1052E00097F8273003F00103DBB2002B0CBF01233A
:1052F0000023DBB297F82720009313460622B968F3
:10530000F868FFF793FD97F8273003F00103DBB24D
:10531000002B0CBF01230023DBB297F8272000935A
:105320000623B968F868FFF781FD97F82730013345
:1053300087F8273097F8272097F820309A42CFD364
:1053400003230322B968F868FFF78BFD97F8203034
:10535000043BDAB20323B968F868FFF782FD97F8D7
:105360002030043BDBB20322B968F868FFF779FD0F
:10537000FB79012B40F2C2806B461E46FA79684BDE
:10538000A3FB0213D21A520813449B08DBB2023368
:10539000FB77FB79202B0FD0FB795A00FB7F13445E
:1053A0005B005A1CFB7F013B5B0092FBF3F3DBB21B
:1053B0005B0087F8263002E01A2387F82630FB7F4F
:1053C000013B87F82530F97F0B46013BBB61CBB22F
:1053D0000022984691464FF000024FF000034FEA3A
:1053E000C90343EA58734FEAC802CBB200221C46F5
:1053F00015464FF000024FF00003EB0043EA5473F0
:10540000E2000B460733DB08DB00ADEB030D02AB1C
:1054100000337B617B6906221A70FB799B00DBB24B
:105420001133FB74002387F82430FB7C073B87F89B
:10543000233015E097F825305A1E87F825201946A5
:105440007B6997F823205A5497F82430013387F862
:10545000243097F8232097F82630D31A87F8233082
:1054600097F82420FB7F013B9A42E3DB002387F877
:1054700022303DE0002387F821302FE097F82230DA
:10548000002B03D197F82130002B21D097F8223040
:10549000002B05D197F82120FB7F013B9A4217D0C2
:1054A00097F82220FB7F013B9A4203D197F82130E5
:1054B000002B0DD097F822307A69D15C97F8213013
:1054C0007A69D35C0A46B968F868FFF740FD00E0E6
:1054D00000BF97F82130013387F8213097F8212059
:1054E000FB7F9A42CAD397F82230013387F82230E3
:1054F00097F82220FB7F9A42BCD3B546BA790023A5
:10550000B968F868FFF773FDFB791A46B968F8685F
:10551000FFF768FE00BF2C37BD46BDE8F08300BF33
:105520002549922480B58AB000AFF860B9607A60EE
:105530007B681B68BB617B689B687B61FB681B6841
:10554000FB7400237B62FB7C9BB2013B9BB27B84A0
:1055500074E0B7F92230062B01D105237B840023A8
:1055600087F8213061E00023FB6156E07B8CDAB2E2
:10557000FB69DBB2D31ABB747B8C03F00203002BF4
:105580000CBF01230023DBB21A46BB7C052B94BF62
:1055900001230023DBB25340002B14BF012300235F
:1055A0007B747B7C002B07D0FA7C97F82130D31AD0
:1055B000DBB2013BDBB201E097F821303B743A7C6F
:1055C000BB7C1946B868FFF715FB034683F001035F
:1055D000DBB2002B1ED07A6ABB699A421AD27B6A70
:1055E000DB087A6913441B781A467B6ADB4303F0B5
:1055F000070342FA03F303F00103002B14BF012356
:105600000023DBB23A7CB97CF868FFF74AFA7B6A80
:1056100001337B62FB690133FB61FB69012BA5DD73
:1056200097F82130013387F8213097F82120FB7C4F
:105630009A4298D37B8C023B9BB27B84B7F9223091
:10564000002B86DC00BF00BF2837BD4680BD90B56B
:105650008DB000AF78600023FB627B681B68FB7530
:10566000002387F82B3049E097F82B301A460021A9
:105670007868FFF7BFFA034687F82A30012387F8D6
:105680002930012387F828302EE097F82B2097F84F
:10569000293019467868FFF7ADFA0346BB73BA7B29
:1056A00097F82A309A4206D0BB7B87F82A3001232C
:1056B00087F8283013E097F82830013387F828302E
:1056C00097F82830052B03D1FB6A0333FB6206E011
:1056D00097F82830052B02D9FB6A0133FB6297F853
:1056E0002930013387F8293097F82920FB7D9A4229
:1056F000CBD397F82B30013387F82B3097F82B203A
:10570000FB7D9A42B0D3002387F8273049E097F811
:105710002730002219467868FFF76CFA034687F8AD
:105720002630012387F82530012387F824302EE026
:1057300097F8252097F8273019467868FFF75AFA26
:105740000346FB73FA7B97F826309A4206D0FB7B20
:1057500087F82630012387F8243013E097F82430A7
:10576000013387F8243097F82430052B03D1FB6AE6
:105770000333FB6206E097F82430052B02D9FB6A5D
:105780000133FB6297F82530013387F8253097F80D
:105790002520FB7D9A42CBD397F82730013387F839
:1057A000273097F82720FB7D9A42B0D300237B84D3
:1057B000002387F821308FE00023FB830023BB8385
:1057C0000023FB767EE097F82120FB7E194678685F
:1057D000FFF710FA0346FB74FB7E002B35D097F8D9
:1057E0002130002B31D0FB7E013BD9B297F821301C
:1057F000013BDBB21A467868FFF7FCF90346BB743D
:1058000097F82130013BDAB2FB7E19467868FFF742
:10581000F1F903467B74FB7E013BDBB297F8212054
:1058200019467868FFF7E6F903463B74FA7CBB7CBF
:105830009A420AD1FA7C7B7C9A4206D1FA7C3B7C64
:105840009A4202D1FB6A0333FB62FB8B5B001BB203
:10585000C3F30A031AB2FB7C1BB213431BB2FB83D4
:10586000BB8B5B001BB2C3F30A031CB2FA7E97F832
:10587000213019467868FFF7BDF903461BB2234370
:105880001BB2BB83FB7E092B13D9FB8B5D2B03D093
:10589000FB8BB3F5BA6F02D1FB6A2833FB62BB8B7B
:1058A0005D2B03D0BB8BB3F5BA6F02D1FB6A2833F3
:1058B000FB62FB7C002B02D07B8C01337B84FB7E64
:1058C0000133FB76FA7EFB7D9A42FFF47CAF97F8BA
:1058D0002130013387F8213097F82120FB7D9A424F
:1058E000FFF46AAFFB7D9AB2FB7D9BB212FB03F320
:1058F000BB8200233B8305E0FB6A0A33FB623B8BE0
:1059000001333B837A8C13469B0013449B0019465A
:105910003B8BC3F10903BA8A02FB03F39942EBDB29
:105920007A8C13469B0013449B0019463B8B0B3328
:10593000BA8A02FB03F39942DEDCFB6A184634376D
:10594000BD4690BD80B485B000AF03460A46FB71EA
:105950001346BB710023FB8107237B732CE0FB897B
:105960005B001AB2FB89DB099BB21946C9001944D6
:1059700049000B4419460901CB1A9BB21BB2534094
:105980001BB2FB81BA7997F90D3042FA03F39BB24F
:1059900003F001039AB2FB799BB212FB03F39BB2B3
:1059A0001AB2B7F90E3053401BB2FB8197F90D3094
:1059B000DBB2013BDBB27B7397F90D30002BCEDA03
:1059C000FB89DBB218461437BD465DF8047B70478F
:1059D00090B585B000AF03463960FB71FB791A467C
:1059E0000021386807F03AFFFB79013B3A6813441D
:1059F00001221A700123FB8100237B7340E0002306
:105A00003B7323E03B7B3A6813441878FB89D9B297
:105A10003B7B3A68D418FFF795FF034623703B7B26
:105A20005A1CFB799A420EDA3B7B3A681344197888
:105A30003B7B01333A6813441A783B7B3868034454
:105A40004A40D2B21A703B7B01333B733A7BFB79FD
:105A50009A42D7D3FB895B001AB2FB89DB099BB260
:105A60001946C900194449000B4419460901CB1ACB
:105A70009BB21BB253401BB2FB817B7B01337B7318
:105A80007A7BFB799A42BAD300BF00BF1437BD4678
:105A900090BD80B586B000AFB9607A601A46034603
:105AA000FB731346BB730023FB755BE0FB7D7A68D9
:105AB00013441A783B6A1B7853403B750123BB752E
:105AC00015E0BB7D97F8242002FB03F31A463B6ADE
:105AD0001A44BB7D013B97F8241001FB03F31946E0
